{
  "contractName": "GameToken",
  "abi": [
    {
      "inputs": [
        {
          "internalType": "string",
          "name": "name",
          "type": "string"
        },
        {
          "internalType": "string",
          "name": "symbol",
          "type": "string"
        },
        {
          "internalType": "uint256",
          "name": "initialSupply",
          "type": "uint256"
        }
      ],
      "stateMutability": "nonpayable",
      "type": "constructor"
    },
    {
      "inputs": [
        {
          "internalType": "address",
          "name": "spender",
          "type": "address"
        },
        {
          "internalType": "uint256",
          "name": "allowance",
          "type": "uint256"
        },
        {
          "internalType": "uint256",
          "name": "needed",
          "type": "uint256"
        }
      ],
      "name": "ERC20InsufficientAllowance",
      "type": "error"
    },
    {
      "inputs": [
        {
          "internalType": "address",
          "name": "sender",
          "type": "address"
        },
        {
          "internalType": "uint256",
          "name": "balance",
          "type": "uint256"
        },
        {
          "internalType": "uint256",
          "name": "needed",
          "type": "uint256"
        }
      ],
      "name": "ERC20InsufficientBalance",
      "type": "error"
    },
    {
      "inputs": [
        {
          "internalType": "address",
          "name": "approver",
          "type": "address"
        }
      ],
      "name": "ERC20InvalidApprover",
      "type": "error"
    },
    {
      "inputs": [
        {
          "internalType": "address",
          "name": "receiver",
          "type": "address"
        }
      ],
      "name": "ERC20InvalidReceiver",
      "type": "error"
    },
    {
      "inputs": [
        {
          "internalType": "address",
          "name": "sender",
          "type": "address"
        }
      ],
      "name": "ERC20InvalidSender",
      "type": "error"
    },
    {
      "inputs": [
        {
          "internalType": "address",
          "name": "spender",
          "type": "address"
        }
      ],
      "name": "ERC20InvalidSpender",
      "type": "error"
    },
    {
      "inputs": [
        {
          "internalType": "address",
          "name": "owner",
          "type": "address"
        }
      ],
      "name": "OwnableInvalidOwner",
      "type": "error"
    },
    {
      "inputs": [
        {
          "internalType": "address",
          "name": "account",
          "type": "address"
        }
      ],
      "name": "OwnableUnauthorizedAccount",
      "type": "error"
    },
    {
      "anonymous": false,
      "inputs": [
        {
          "indexed": true,
          "internalType": "address",
          "name": "owner",
          "type": "address"
        },
        {
          "indexed": true,
          "internalType": "address",
          "name": "spender",
          "type": "address"
        },
        {
          "indexed": false,
          "internalType": "uint256",
          "name": "value",
          "type": "uint256"
        }
      ],
      "name": "Approval",
      "type": "event"
    },
    {
      "anonymous": false,
      "inputs": [
        {
          "indexed": true,
          "internalType": "address",
          "name": "previousOwner",
          "type": "address"
        },
        {
          "indexed": true,
          "internalType": "address",
          "name": "newOwner",
          "type": "address"
        }
      ],
      "name": "OwnershipTransferred",
      "type": "event"
    },
    {
      "anonymous": false,
      "inputs": [
        {
          "indexed": true,
          "internalType": "address",
          "name": "from",
          "type": "address"
        },
        {
          "indexed": true,
          "internalType": "address",
          "name": "to",
          "type": "address"
        },
        {
          "indexed": false,
          "internalType": "uint256",
          "name": "value",
          "type": "uint256"
        }
      ],
      "name": "Transfer",
      "type": "event"
    },
    {
      "inputs": [
        {
          "internalType": "address",
          "name": "owner",
          "type": "address"
        },
        {
          "internalType": "address",
          "name": "spender",
          "type": "address"
        }
      ],
      "name": "allowance",
      "outputs": [
        {
          "internalType": "uint256",
          "name": "",
          "type": "uint256"
        }
      ],
      "stateMutability": "view",
      "type": "function",
      "constant": true
    },
    {
      "inputs": [
        {
          "internalType": "address",
          "name": "spender",
          "type": "address"
        },
        {
          "internalType": "uint256",
          "name": "value",
          "type": "uint256"
        }
      ],
      "name": "approve",
      "outputs": [
        {
          "internalType": "bool",
          "name": "",
          "type": "bool"
        }
      ],
      "stateMutability": "nonpayable",
      "type": "function"
    },
    {
      "inputs": [
        {
          "internalType": "address",
          "name": "account",
          "type": "address"
        }
      ],
      "name": "balanceOf",
      "outputs": [
        {
          "internalType": "uint256",
          "name": "",
          "type": "uint256"
        }
      ],
      "stateMutability": "view",
      "type": "function",
      "constant": true
    },
    {
      "inputs": [],
      "name": "decimals",
      "outputs": [
        {
          "internalType": "uint8",
          "name": "",
          "type": "uint8"
        }
      ],
      "stateMutability": "view",
      "type": "function",
      "constant": true
    },
    {
      "inputs": [],
      "name": "name",
      "outputs": [
        {
          "internalType": "string",
          "name": "",
          "type": "string"
        }
      ],
      "stateMutability": "view",
      "type": "function",
      "constant": true
    },
    {
      "inputs": [],
      "name": "owner",
      "outputs": [
        {
          "internalType": "address",
          "name": "",
          "type": "address"
        }
      ],
      "stateMutability": "view",
      "type": "function",
      "constant": true
    },
    {
      "inputs": [],
      "name": "renounceOwnership",
      "outputs": [],
      "stateMutability": "nonpayable",
      "type": "function"
    },
    {
      "inputs": [],
      "name": "symbol",
      "outputs": [
        {
          "internalType": "string",
          "name": "",
          "type": "string"
        }
      ],
      "stateMutability": "view",
      "type": "function",
      "constant": true
    },
    {
      "inputs": [],
      "name": "totalSupply",
      "outputs": [
        {
          "internalType": "uint256",
          "name": "",
          "type": "uint256"
        }
      ],
      "stateMutability": "view",
      "type": "function",
      "constant": true
    },
    {
      "inputs": [
        {
          "internalType": "address",
          "name": "to",
          "type": "address"
        },
        {
          "internalType": "uint256",
          "name": "value",
          "type": "uint256"
        }
      ],
      "name": "transfer",
      "outputs": [
        {
          "internalType": "bool",
          "name": "",
          "type": "bool"
        }
      ],
      "stateMutability": "nonpayable",
      "type": "function"
    },
    {
      "inputs": [
        {
          "internalType": "address",
          "name": "from",
          "type": "address"
        },
        {
          "internalType": "address",
          "name": "to",
          "type": "address"
        },
        {
          "internalType": "uint256",
          "name": "value",
          "type": "uint256"
        }
      ],
      "name": "transferFrom",
      "outputs": [
        {
          "internalType": "bool",
          "name": "",
          "type": "bool"
        }
      ],
      "stateMutability": "nonpayable",
      "type": "function"
    },
    {
      "inputs": [
        {
          "internalType": "address",
          "name": "newOwner",
          "type": "address"
        }
      ],
      "name": "transferOwnership",
      "outputs": [],
      "stateMutability": "nonpayable",
      "type": "function"
    },
    {
      "inputs": [
        {
          "internalType": "uint256",
          "name": "amount",
          "type": "uint256"
        }
      ],
      "name": "playGame",
      "outputs": [],
      "stateMutability": "nonpayable",
      "type": "function"
    },
    {
      "inputs": [
        {
          "internalType": "address",
          "name": "player",
          "type": "address"
        },
        {
          "internalType": "uint256",
          "name": "rewardAmount",
          "type": "uint256"
        }
      ],
      "name": "rewardPlayer",
      "outputs": [],
      "stateMutability": "nonpayable",
      "type": "function"
    },
    {
      "inputs": [
        {
          "internalType": "uint256",
          "name": "amount",
          "type": "uint256"
        }
      ],
      "name": "mintTokens",
      "outputs": [],
      "stateMutability": "nonpayable",
      "type": "function"
    },
    {
      "inputs": [
        {
          "internalType": "address",
          "name": "recipient",
          "type": "address"
        },
        {
          "internalType": "uint256",
          "name": "amount",
          "type": "uint256"
        }
      ],
      "name": "transferTokens",
      "outputs": [],
      "stateMutability": "nonpayable",
      "type": "function"
    }
  ],
  "bytecode": "0x608060405234801562000010575f80fd5b506040516200257d3803806200257d83398181016040528101906200003691906200065f565b33838381600390816200004a919062000924565b5080600490816200005c919062000924565b5050505f73ffffffffffffffffffffffffffffffffffffffff168173ffffffffffffffffffffffffffffffffffffffff1603620000d2575f6040517f1e4fbdf7000000000000000000000000000000000000000000000000000000008152600401620000c9919062000a4b565b60405180910390fd5b620000e3816200012960201b60201c565b506200012033620000f9620001ec60201b60201c565b600a62000107919062000bef565b8362000114919062000c3f565b620001f460201b60201c565b50505062000d2a565b5f60055f9054906101000a900473ffffffffffffffffffffffffffffffffffffffff1690508160055f6101000a81548173ffffffffffffffffffffffffffffffffffffffff021916908373ffffffffffffffffffffffffffffffffffffffff1602179055508173ffffffffffffffffffffffffffffffffffffffff168173ffffffffffffffffffffffffffffffffffffffff167f8be0079c531659141344cd1fd0a4f28419497f9722a3daafe3b4186f6b6457e060405160405180910390a35050565b5f6012905090565b5f73ffffffffffffffffffffffffffffffffffffffff168273ffffffffffffffffffffffffffffffffffffffff160362000267575f6040517fec442f050000000000000000000000000000000000000000000000000000000081526004016200025e919062000a4b565b60405180910390fd5b6200027a5f83836200027e60201b60201c565b5050565b5f73ffffffffffffffffffffffffffffffffffffffff168373ffffffffffffffffffffffffffffffffffffffff1603620002d2578060025f828254620002c5919062000c89565b92505081905550620003a3565b5f805f8573ffffffffffffffffffffffffffffffffffffffff1673ffffffffffffffffffffffffffffffffffffffff1681526020019081526020015f20549050818110156200035e578381836040517fe450d38c000000000000000000000000000000000000000000000000000000008152600401620003559392919062000cd4565b60405180910390fd5b8181035f808673ffffffffffffffffffffffffffffffffffffffff1673ffffffffffffffffffffffffffffffffffffffff1681526020019081526020015f2081905550505b5f73ffffffffffffffffffffffffffffffffffffffff168273ffffffffffffffffffffffffffffffffffffffff1603620003ec578060025f828254039250508190555062000436565b805f808473ffffffffffffffffffffffffffffffffffffffff1673ffffffffffffffffffffffffffffffffffffffff1681526020019081526020015f205f82825401925050819055505b8173ffffffffffffffffffffffffffffffffffffffff168373ffffffffffffffffffffffffffffffffffffffff167fddf252ad1be2c89b69c2b068fc378daa952ba7f163c4a11628f55a4df523b3ef8360405162000495919062000d0f565b60405180910390a3505050565b5f604051905090565b5f80fd5b5f80fd5b5f80fd5b5f80fd5b5f601f19601f8301169050919050565b7f4e487b71000000000000000000000000000000000000000000000000000000005f52604160045260245ffd5b6200050382620004bb565b810181811067ffffffffffffffff82111715620005255762000524620004cb565b5b80604052505050565b5f62000539620004a2565b9050620005478282620004f8565b919050565b5f67ffffffffffffffff821115620005695762000568620004cb565b5b6200057482620004bb565b9050602081019050919050565b5f5b83811015620005a057808201518184015260208101905062000583565b5f8484015250505050565b5f620005c1620005bb846200054c565b6200052e565b905082815260208101848484011115620005e057620005df620004b7565b5b620005ed84828562000581565b509392505050565b5f82601f8301126200060c576200060b620004b3565b5b81516200061e848260208601620005ab565b91505092915050565b5f819050919050565b6200063b8162000627565b811462000646575f80fd5b50565b5f81519050620006598162000630565b92915050565b5f805f60608486031215620006795762000678620004ab565b5b5f84015167ffffffffffffffff811115620006995762000698620004af565b5b620006a786828701620005f5565b935050602084015167ffffffffffffffff811115620006cb57620006ca620004af565b5b620006d986828701620005f5565b9250506040620006ec8682870162000649565b9150509250925092565b5f81519050919050565b7f4e487b71000000000000000000000000000000000000000000000000000000005f52602260045260245ffd5b5f60028204905060018216806200074557607f821691505b6020821081036200075b576200075a62000700565b5b50919050565b5f819050815f5260205f209050919050565b5f6020601f8301049050919050565b5f82821b905092915050565b5f60088302620007bf7fffffffffffffffffffffffffffffffffffffffffffffffffffffffffffffffff8262000782565b620007cb868362000782565b95508019841693508086168417925050509392505050565b5f819050919050565b5f6200080c62000806620008008462000627565b620007e3565b62000627565b9050919050565b5f819050919050565b6200082783620007ec565b6200083f620008368262000813565b8484546200078e565b825550505050565b5f90565b6200085562000847565b620008628184846200081c565b505050565b5b8181101562000889576200087d5f826200084b565b60018101905062000868565b5050565b601f821115620008d857620008a28162000761565b620008ad8462000773565b81016020851015620008bd578190505b620008d5620008cc8562000773565b83018262000867565b50505b505050565b5f82821c905092915050565b5f620008fa5f1984600802620008dd565b1980831691505092915050565b5f620009148383620008e9565b9150826002028217905092915050565b6200092f82620006f6565b67ffffffffffffffff8111156200094b576200094a620004cb565b5b6200095782546200072d565b620009648282856200088d565b5f60209050601f8311600181146200099a575f841562000985578287015190505b62000991858262000907565b86555062000a00565b601f198416620009aa8662000761565b5f5b82811015620009d357848901518255600182019150602085019450602081019050620009ac565b86831015620009f35784890151620009ef601f891682620008e9565b8355505b6001600288020188555050505b505050505050565b5f73ffffffffffffffffffffffffffffffffffffffff82169050919050565b5f62000a338262000a08565b9050919050565b62000a458162000a27565b82525050565b5f60208201905062000a605f83018462000a3a565b92915050565b7f4e487b71000000000000000000000000000000000000000000000000000000005f52601160045260245ffd5b5f8160011c9050919050565b5f808291508390505b600185111562000af05780860481111562000ac85762000ac762000a66565b5b600185161562000ad85780820291505b808102905062000ae88562000a93565b945062000aa8565b94509492505050565b5f8262000b0a576001905062000bdc565b8162000b19575f905062000bdc565b816001811462000b32576002811462000b3d5762000b73565b600191505062000bdc565b60ff84111562000b525762000b5162000a66565b5b8360020a91508482111562000b6c5762000b6b62000a66565b5b5062000bdc565b5060208310610133831016604e8410600b841016171562000bad5782820a90508381111562000ba75762000ba662000a66565b5b62000bdc565b62000bbc848484600162000a9f565b9250905081840481111562000bd65762000bd562000a66565b5b81810290505b9392505050565b5f60ff82169050919050565b5f62000bfb8262000627565b915062000c088362000be3565b925062000c377fffffffffffffffffffffffffffffffffffffffffffffffffffffffffffffffff848462000af9565b905092915050565b5f62000c4b8262000627565b915062000c588362000627565b925082820262000c688162000627565b9150828204841483151762000c825762000c8162000a66565b5b5092915050565b5f62000c958262000627565b915062000ca28362000627565b925082820190508082111562000cbd5762000cbc62000a66565b5b92915050565b62000cce8162000627565b82525050565b5f60608201905062000ce95f83018662000a3a565b62000cf8602083018562000cc3565b62000d07604083018462000cc3565b949350505050565b5f60208201905062000d245f83018462000cc3565b92915050565b6118458062000d385f395ff3fe608060405234801561000f575f80fd5b50600436106100fe575f3560e01c8063715018a611610095578063a9059cbb11610064578063a9059cbb14610286578063bec3fa17146102b6578063dd62ed3e146102d2578063f2fde38b14610302576100fe565b8063715018a6146102245780638da5cb5b1461022e57806395d89b411461024c57806397304ced1461026a576100fe565b8063313ce567116100d1578063313ce5671461019e57806335f6ebc1146101bc5780635873533d146101d857806370a08231146101f4576100fe565b806306fdde0314610102578063095ea7b31461012057806318160ddd1461015057806323b872dd1461016e575b5f80fd5b61010a61031e565b6040516101179190611149565b60405180910390f35b61013a600480360381019061013591906111fa565b6103ae565b6040516101479190611252565b60405180910390f35b6101586103d0565b604051610165919061127a565b60405180910390f35b61018860048036038101906101839190611293565b6103d9565b6040516101959190611252565b60405180910390f35b6101a6610407565b6040516101b391906112fe565b60405180910390f35b6101d660048036038101906101d191906111fa565b61040f565b005b6101f260048036038101906101ed9190611317565b6104e6565b005b61020e60048036038101906102099190611342565b61053e565b60405161021b919061127a565b60405180910390f35b61022c610583565b005b610236610596565b604051610243919061137c565b60405180910390f35b6102546105be565b6040516102619190611149565b60405180910390f35b610284600480360381019061027f9190611317565b61064e565b005b6102a0600480360381019061029b91906111fa565b6106ac565b6040516102ad9190611252565b60405180910390f35b6102d060048036038101906102cb91906111fa565b6106ce565b005b6102ec60048036038101906102e79190611395565b6107ee565b6040516102f9919061127a565b60405180910390f35b61031c60048036038101906103179190611342565b610870565b005b60606003805461032d90611400565b80601f016020809104026020016040519081016040528092919081815260200182805461035990611400565b80156103a45780601f1061037b576101008083540402835291602001916103a4565b820191905f5260205f20905b81548152906001019060200180831161038757829003601f168201915b5050505050905090565b5f806103b86108f4565b90506103c58185856108fb565b600191505092915050565b5f600254905090565b5f806103e36108f4565b90506103f085828561090d565b6103fb85858561099f565b60019150509392505050565b5f6012905090565b5f73ffffffffffffffffffffffffffffffffffffffff168273ffffffffffffffffffffffffffffffffffffffff160361047d576040517f08c379a00000000000000000000000000000000000000000000000000000000081526004016104749061147a565b60405180910390fd5b5f81116104bf576040517f08c379a00000000000000000000000000000000000000000000000000000000081526004016104b690611508565b60405180910390fd5b6104d06104ca610596565b82610a8f565b6104e26104db610596565b838361099f565b5050565b806104f03361053e565b1015610531576040517f08c379a000000000000000000000000000000000000000000000000000000000815260040161052890611570565b60405180910390fd5b61053b3382610b0e565b50565b5f805f8373ffffffffffffffffffffffffffffffffffffffff1673ffffffffffffffffffffffffffffffffffffffff1681526020019081526020015f20549050919050565b61058b610b8d565b6105945f610c14565b565b5f60055f9054906101000a900473ffffffffffffffffffffffffffffffffffffffff16905090565b6060600480546105cd90611400565b80601f01602080910402602001604051908101604052809291908181526020018280546105f990611400565b80156106445780601f1061061b57610100808354040283529160200191610644565b820191905f5260205f20905b81548152906001019060200180831161062757829003601f168201915b5050505050905090565b610656610b8d565b5f8111610698576040517f08c379a000000000000000000000000000000000000000000000000000000000815260040161068f906115fe565b60405180910390fd5b6106a96106a3610596565b82610a8f565b50565b5f806106b66108f4565b90506106c381858561099f565b600191505092915050565b6106d6610b8d565b5f73ffffffffffffffffffffffffffffffffffffffff168273ffffffffffffffffffffffffffffffffffffffff1603610744576040517f08c379a000000000000000000000000000000000000000000000000000000000815260040161073b90611666565b60405180910390fd5b5f8111610786576040517f08c379a000000000000000000000000000000000000000000000000000000000815260040161077d906116f4565b60405180910390fd5b80610797610792610596565b61053e565b10156107d8576040517f08c379a00000000000000000000000000000000000000000000000000000000081526004016107cf9061175c565b60405180910390fd5b6107ea6107e3610596565b838361099f565b5050565b5f60015f8473ffffffffffffffffffffffffffffffffffffffff1673ffffffffffffffffffffffffffffffffffffffff1681526020019081526020015f205f8373ffffffffffffffffffffffffffffffffffffffff1673ffffffffffffffffffffffffffffffffffffffff1681526020019081526020015f2054905092915050565b610878610b8d565b5f73ffffffffffffffffffffffffffffffffffffffff168173ffffffffffffffffffffffffffffffffffffffff16036108e8575f6040517f1e4fbdf70000000000000000000000000000000000000000000000000000000081526004016108df919061137c565b60405180910390fd5b6108f181610c14565b50565b5f33905090565b6109088383836001610cd7565b505050565b5f61091884846107ee565b90507fffffffffffffffffffffffffffffffffffffffffffffffffffffffffffffffff8114610999578181101561098a578281836040517ffb8f41b20000000000000000000000000000000000000000000000000000000081526004016109819392919061177a565b60405180910390fd5b61099884848484035f610cd7565b5b50505050565b5f73ffffffffffffffffffffffffffffffffffffffff168373ffffffffffffffffffffffffffffffffffffffff1603610a0f575f6040517f96c6fd1e000000000000000000000000000000000000000000000000000000008152600401610a06919061137c565b60405180910390fd5b5f73ffffffffffffffffffffffffffffffffffffffff168273ffffffffffffffffffffffffffffffffffffffff1603610a7f575f6040517fec442f05000000000000000000000000000000000000000000000000000000008152600401610a76919061137c565b60405180910390fd5b610a8a838383610ea6565b505050565b5f73ffffffffffffffffffffffffffffffffffffffff168273ffffffffffffffffffffffffffffffffffffffff1603610aff575f6040517fec442f05000000000000000000000000000000000000000000000000000000008152600401610af6919061137c565b60405180910390fd5b610b0a5f8383610ea6565b5050565b5f73ffffffffffffffffffffffffffffffffffffffff168273ffffffffffffffffffffffffffffffffffffffff1603610b7e575f6040517f96c6fd1e000000000000000000000000000000000000000000000000000000008152600401610b75919061137c565b60405180910390fd5b610b89825f83610ea6565b5050565b610b956108f4565b73ffffffffffffffffffffffffffffffffffffffff16610bb3610596565b73ffffffffffffffffffffffffffffffffffffffff1614610c1257610bd66108f4565b6040517f118cdaa7000000000000000000000000000000000000000000000000000000008152600401610c09919061137c565b60405180910390fd5b565b5f60055f9054906101000a900473ffffffffffffffffffffffffffffffffffffffff1690508160055f6101000a81548173ffffffffffffffffffffffffffffffffffffffff021916908373ffffffffffffffffffffffffffffffffffffffff1602179055508173ffffffffffffffffffffffffffffffffffffffff168173ffffffffffffffffffffffffffffffffffffffff167f8be0079c531659141344cd1fd0a4f28419497f9722a3daafe3b4186f6b6457e060405160405180910390a35050565b5f73ffffffffffffffffffffffffffffffffffffffff168473ffffffffffffffffffffffffffffffffffffffff1603610d47575f6040517fe602df05000000000000000000000000000000000000000000000000000000008152600401610d3e919061137c565b60405180910390fd5b5f73ffffffffffffffffffffffffffffffffffffffff168373ffffffffffffffffffffffffffffffffffffffff1603610db7575f6040517f94280d62000000000000000000000000000000000000000000000000000000008152600401610dae919061137c565b60405180910390fd5b8160015f8673ffffffffffffffffffffffffffffffffffffffff1673ffffffffffffffffffffffffffffffffffffffff1681526020019081526020015f205f8573ffffffffffffffffffffffffffffffffffffffff1673ffffffffffffffffffffffffffffffffffffffff1681526020019081526020015f20819055508015610ea0578273ffffffffffffffffffffffffffffffffffffffff168473ffffffffffffffffffffffffffffffffffffffff167f8c5be1e5ebec7d5bd14f71427d1e84f3dd0314c0f7b2291e5b200ac8c7c3b92584604051610e97919061127a565b60405180910390a35b50505050565b5f73ffffffffffffffffffffffffffffffffffffffff168373ffffffffffffffffffffffffffffffffffffffff1603610ef6578060025f828254610eea91906117dc565b92505081905550610fc4565b5f805f8573ffffffffffffffffffffffffffffffffffffffff1673ffffffffffffffffffffffffffffffffffffffff1681526020019081526020015f2054905081811015610f7f578381836040517fe450d38c000000000000000000000000000000000000000000000000000000008152600401610f769392919061177a565b60405180910390fd5b8181035f808673ffffffffffffffffffffffffffffffffffffffff1673ffffffffffffffffffffffffffffffffffffffff1681526020019081526020015f2081905550505b5f73ffffffffffffffffffffffffffffffffffffffff168273ffffffffffffffffffffffffffffffffffffffff160361100b578060025f8282540392505081905550611055565b805f808473ffffffffffffffffffffffffffffffffffffffff1673ffffffffffffffffffffffffffffffffffffffff1681526020019081526020015f205f82825401925050819055505b8173ffffffffffffffffffffffffffffffffffffffff168373ffffffffffffffffffffffffffffffffffffffff167fddf252ad1be2c89b69c2b068fc378daa952ba7f163c4a11628f55a4df523b3ef836040516110b2919061127a565b60405180910390a3505050565b5f81519050919050565b5f82825260208201905092915050565b5f5b838110156110f65780820151818401526020810190506110db565b5f8484015250505050565b5f601f19601f8301169050919050565b5f61111b826110bf565b61112581856110c9565b93506111358185602086016110d9565b61113e81611101565b840191505092915050565b5f6020820190508181035f8301526111618184611111565b905092915050565b5f80fd5b5f73ffffffffffffffffffffffffffffffffffffffff82169050919050565b5f6111968261116d565b9050919050565b6111a68161118c565b81146111b0575f80fd5b50565b5f813590506111c18161119d565b92915050565b5f819050919050565b6111d9816111c7565b81146111e3575f80fd5b50565b5f813590506111f4816111d0565b92915050565b5f80604083850312156112105761120f611169565b5b5f61121d858286016111b3565b925050602061122e858286016111e6565b9150509250929050565b5f8115159050919050565b61124c81611238565b82525050565b5f6020820190506112655f830184611243565b92915050565b611274816111c7565b82525050565b5f60208201905061128d5f83018461126b565b92915050565b5f805f606084860312156112aa576112a9611169565b5b5f6112b7868287016111b3565b93505060206112c8868287016111b3565b92505060406112d9868287016111e6565b9150509250925092565b5f60ff82169050919050565b6112f8816112e3565b82525050565b5f6020820190506113115f8301846112ef565b92915050565b5f6020828403121561132c5761132b611169565b5b5f611339848285016111e6565b91505092915050565b5f6020828403121561135757611356611169565b5b5f611364848285016111b3565b91505092915050565b6113768161118c565b82525050565b5f60208201905061138f5f83018461136d565b92915050565b5f80604083850312156113ab576113aa611169565b5b5f6113b8858286016111b3565b92505060206113c9858286016111b3565b9150509250929050565b7f4e487b71000000000000000000000000000000000000000000000000000000005f52602260045260245ffd5b5f600282049050600182168061141757607f821691505b60208210810361142a576114296113d3565b5b50919050565b7f496e76616c696420706c617965722061646472657373000000000000000000005f82015250565b5f6114646016836110c9565b915061146f82611430565b602082019050919050565b5f6020820190508181035f83015261149181611458565b9050919050565b7f52657761726420616d6f756e74206d75737420626520677265617465722074685f8201527f616e203000000000000000000000000000000000000000000000000000000000602082015250565b5f6114f26024836110c9565b91506114fd82611498565b604082019050919050565b5f6020820190508181035f83015261151f816114e6565b9050919050565b7f496e73756666696369656e742062616c616e636520746f20706c61792e0000005f82015250565b5f61155a601d836110c9565b915061156582611526565b602082019050919050565b5f6020820190508181035f8301526115878161154e565b9050919050565b7f4d696e7420616d6f756e74206d7573742062652067726561746572207468616e5f8201527f2030000000000000000000000000000000000000000000000000000000000000602082015250565b5f6115e86022836110c9565b91506115f38261158e565b604082019050919050565b5f6020820190508181035f830152611615816115dc565b9050919050565b7f496e76616c696420726563697069656e742061646472657373000000000000005f82015250565b5f6116506019836110c9565b915061165b8261161c565b602082019050919050565b5f6020820190508181035f83015261167d81611644565b9050919050565b7f5472616e7366657220616d6f756e74206d7573742062652067726561746572205f8201527f7468616e20300000000000000000000000000000000000000000000000000000602082015250565b5f6116de6026836110c9565b91506116e982611684565b604082019050919050565b5f6020820190508181035f83015261170b816116d2565b9050919050565b7f496e73756666696369656e742062616c616e636520746f207472616e736665725f82015250565b5f6117466020836110c9565b915061175182611712565b602082019050919050565b5f6020820190508181035f8301526117738161173a565b9050919050565b5f60608201905061178d5f83018661136d565b61179a602083018561126b565b6117a7604083018461126b565b949350505050565b7f4e487b71000000000000000000000000000000000000000000000000000000005f52601160045260245ffd5b5f6117e6826111c7565b91506117f1836111c7565b9250828201905080821115611809576118086117af565b5b9291505056fea2646970667358221220016669341e90cd37f7192ca2fb8a871315c2a1f8d591ef1fadfe85da128e83a664736f6c63430008150033",
  "immutableReferences": {},
  "source": "// SPDX-License-Identifier: MIT\r\npragma solidity ^0.8.0;\r\n\r\nimport \"@openzeppelin/contracts/token/ERC20/ERC20.sol\";\r\nimport \"@openzeppelin/contracts/access/Ownable.sol\";\r\n\r\ncontract GameToken is ERC20, Ownable {\r\n\r\n    // Constructor to initialize token details\r\n    constructor(string memory name, string memory symbol, uint256 initialSupply) \r\n        ERC20(name, symbol)  Ownable(msg.sender)\r\n    {\r\n        _mint(msg.sender, initialSupply * 10 ** decimals()); // Mint initial supply for the contract owner\r\n    }\r\n\r\n    // Function for players to pay to play the game\r\n    function playGame(uint256 amount) external {\r\n        require(balanceOf(msg.sender) >= amount, \"Insufficient balance to play.\");\r\n        _burn(msg.sender, amount); // Burn tokens to simulate the payment\r\n    }\r\n\r\n    // Function to reward players after they finish the game\r\n    function rewardPlayer(address player, uint256 rewardAmount) external {\r\n        require(player != address(0), \"Invalid player address\"); // Ensure valid address\r\n        require(rewardAmount > 0, \"Reward amount must be greater than 0\"); // Ensure reward is positive\r\n\r\n        // Mint tokens to the owner's address\r\n        _mint(owner(), rewardAmount); // Mint tokens to the owner\r\n\r\n        // Transfer the minted tokens to the player's address\r\n        _transfer(owner(), player, rewardAmount); // Transfer tokens from owner to player\r\n    }\r\n    // Function for the contract owner to mint additional tokens\r\n    function mintTokens(uint256 amount) external onlyOwner {\r\n        require(amount > 0, \"Mint amount must be greater than 0\");\r\n\r\n        _mint(owner(), amount); // Mint new tokens to the owner's address\r\n    }\r\n\r\n    // Function for the contract owner to transfer tokens to another address\r\n    function transferTokens(address recipient, uint256 amount) external onlyOwner {\r\n        require(recipient != address(0), \"Invalid recipient address\");\r\n        require(amount > 0, \"Transfer amount must be greater than 0\");\r\n        require(balanceOf(owner()) >= amount, \"Insufficient balance to transfer\");\r\n\r\n        _transfer(owner(), recipient, amount); // Transfer tokens from owner to recipient\r\n    }\r\n}\r\n",
  "sourcePath": "C:\\Users\\nisha\\Documents\\game-token-project\\contracts\\GameToken.sol",
  "compiler": {
    "name": "solc",
    "version": "0.8.21+commit.d9974bed.Emscripten.clang"
  },
  "schemaVersion": "3.4.16",
  "updatedAt": "2024-10-18T08:33:40.152Z",
  "networkType": "ethereum",
  "devdoc": {
    "errors": {
      "ERC20InsufficientAllowance(address,uint256,uint256)": [
        {
          "details": "Indicates a failure with the `spender`s `allowance`. Used in transfers.",
          "params": {
            "allowance": "Amount of tokens a `spender` is allowed to operate with.",
            "needed": "Minimum amount required to perform a transfer.",
            "spender": "Address that may be allowed to operate on tokens without being their owner."
          }
        }
      ],
      "ERC20InsufficientBalance(address,uint256,uint256)": [
        {
          "details": "Indicates an error related to the current `balance` of a `sender`. Used in transfers.",
          "params": {
            "balance": "Current balance for the interacting account.",
            "needed": "Minimum amount required to perform a transfer.",
            "sender": "Address whose tokens are being transferred."
          }
        }
      ],
      "ERC20InvalidApprover(address)": [
        {
          "details": "Indicates a failure with the `approver` of a token to be approved. Used in approvals.",
          "params": {
            "approver": "Address initiating an approval operation."
          }
        }
      ],
      "ERC20InvalidReceiver(address)": [
        {
          "details": "Indicates a failure with the token `receiver`. Used in transfers.",
          "params": {
            "receiver": "Address to which tokens are being transferred."
          }
        }
      ],
      "ERC20InvalidSender(address)": [
        {
          "details": "Indicates a failure with the token `sender`. Used in transfers.",
          "params": {
            "sender": "Address whose tokens are being transferred."
          }
        }
      ],
      "ERC20InvalidSpender(address)": [
        {
          "details": "Indicates a failure with the `spender` to be approved. Used in approvals.",
          "params": {
            "spender": "Address that may be allowed to operate on tokens without being their owner."
          }
        }
      ],
      "OwnableInvalidOwner(address)": [
        {
          "details": "The owner is not a valid owner account. (eg. `address(0)`)"
        }
      ],
      "OwnableUnauthorizedAccount(address)": [
        {
          "details": "The caller account is not authorized to perform an operation."
        }
      ]
    },
    "events": {
      "Approval(address,address,uint256)": {
        "details": "Emitted when the allowance of a `spender` for an `owner` is set by a call to {approve}. `value` is the new allowance."
      },
      "Transfer(address,address,uint256)": {
        "details": "Emitted when `value` tokens are moved from one account (`from`) to another (`to`). Note that `value` may be zero."
      }
    },
    "kind": "dev",
    "methods": {
      "allowance(address,address)": {
        "details": "See {IERC20-allowance}."
      },
      "approve(address,uint256)": {
        "details": "See {IERC20-approve}. NOTE: If `value` is the maximum `uint256`, the allowance is not updated on `transferFrom`. This is semantically equivalent to an infinite approval. Requirements: - `spender` cannot be the zero address."
      },
      "balanceOf(address)": {
        "details": "See {IERC20-balanceOf}."
      },
      "decimals()": {
        "details": "Returns the number of decimals used to get its user representation. For example, if `decimals` equals `2`, a balance of `505` tokens should be displayed to a user as `5.05` (`505 / 10 ** 2`). Tokens usually opt for a value of 18, imitating the relationship between Ether and Wei. This is the default value returned by this function, unless it's overridden. NOTE: This information is only used for _display_ purposes: it in no way affects any of the arithmetic of the contract, including {IERC20-balanceOf} and {IERC20-transfer}."
      },
      "name()": {
        "details": "Returns the name of the token."
      },
      "owner()": {
        "details": "Returns the address of the current owner."
      },
      "renounceOwnership()": {
        "details": "Leaves the contract without owner. It will not be possible to call `onlyOwner` functions. Can only be called by the current owner. NOTE: Renouncing ownership will leave the contract without an owner, thereby disabling any functionality that is only available to the owner."
      },
      "symbol()": {
        "details": "Returns the symbol of the token, usually a shorter version of the name."
      },
      "totalSupply()": {
        "details": "See {IERC20-totalSupply}."
      },
      "transfer(address,uint256)": {
        "details": "See {IERC20-transfer}. Requirements: - `to` cannot be the zero address. - the caller must have a balance of at least `value`."
      },
      "transferFrom(address,address,uint256)": {
        "details": "See {IERC20-transferFrom}. Emits an {Approval} event indicating the updated allowance. This is not required by the EIP. See the note at the beginning of {ERC20}. NOTE: Does not update the allowance if the current allowance is the maximum `uint256`. Requirements: - `from` and `to` cannot be the zero address. - `from` must have a balance of at least `value`. - the caller must have allowance for ``from``'s tokens of at least `value`."
      },
      "transferOwnership(address)": {
        "details": "Transfers ownership of the contract to a new account (`newOwner`). Can only be called by the current owner."
      }
    },
    "version": 1
  },
  "userdoc": {
    "kind": "user",
    "methods": {},
    "version": 1
  }
}